{"abi":[{"type":"constructor","inputs":[{"name":"_anchor","type":"address","internalType":"address"}],"stateMutability":"nonpayable"},{"type":"function","name":"anchor","inputs":[],"outputs":[{"name":"","type":"address","internalType":"contract IMerkleAnchor"}],"stateMutability":"view"},{"type":"function","name":"checkEventInclusion","inputs":[{"name":"batchId","type":"bytes32","internalType":"bytes32"},{"name":"leaf","type":"bytes32","internalType":"bytes32"},{"name":"proof","type":"bytes32[]","internalType":"bytes32[]"}],"outputs":[{"name":"valid","type":"bool","internalType":"bool"},{"name":"anchoredAt","type":"uint64","internalType":"uint64"}],"stateMutability":"view"},{"type":"function","name":"recordVerifiedArrival","inputs":[{"name":"mmsi","type":"string","internalType":"string"},{"name":"portLocode","type":"string","internalType":"string"},{"name":"batchId","type":"bytes32","internalType":"bytes32"},{"name":"leaf","type":"bytes32","internalType":"bytes32"},{"name":"proof","type":"bytes32[]","internalType":"bytes32[]"}],"outputs":[],"stateMutability":"nonpayable"},{"type":"function","name":"verifyEventInclusion","inputs":[{"name":"batchId","type":"bytes32","internalType":"bytes32"},{"name":"leaf","type":"bytes32","internalType":"bytes32"},{"name":"proof","type":"bytes32[]","internalType":"bytes32[]"}],"outputs":[{"name":"valid","type":"bool","internalType":"bool"}],"stateMutability":"nonpayable"},{"type":"event","name":"ArrivalRecorded","inputs":[{"name":"mmsi","type":"string","indexed":false,"internalType":"string"},{"name":"portLocode","type":"string","indexed":false,"internalType":"string"},{"name":"batchId","type":"bytes32","indexed":false,"internalType":"bytes32"},{"name":"provenAt","type":"uint64","indexed":false,"internalType":"uint64"}],"anonymous":false},{"type":"event","name":"EventVerified","inputs":[{"name":"batchId","type":"bytes32","indexed":true,"internalType":"bytes32"},{"name":"leaf","type":"bytes32","indexed":true,"internalType":"bytes32"},{"name":"verifier","type":"address","indexed":true,"internalType":"address"}],"anonymous":false},{"type":"error","name":"BatchNotFound","inputs":[{"name":"batchId","type":"bytes32","internalType":"bytes32"}]},{"type":"error","name":"InvalidProof","inputs":[]}],"bytecode":{"object":"0x60a060405234801561000f575f5ffd5b50604051610ecf380380610ecf833981810160405281019061003191906100c9565b8073ffffffffffffffffffffffffffffffffffffffff1660808173ffffffffffffffffffffffffffffffffffffffff1681525050506100f4565b5f5ffd5b5f73ffffffffffffffffffffffffffffffffffffffff82169050919050565b5f6100988261006f565b9050919050565b6100a88161008e565b81146100b2575f5ffd5b50565b5f815190506100c38161009f565b92915050565b5f602082840312156100de576100dd61006b565b5b5f6100eb848285016100b5565b91505092915050565b608051610daf6101205f395f818160ed015281816102420152818161032001526103450152610daf5ff3fe608060405234801561000f575f5ffd5b506004361061004a575f3560e01c8063342efc2a1461004e578063b0e49d191461007e578063d3fb73b4146100af578063fa5598b4146100cd575b5f5ffd5b610068600480360381019061006391906106f5565b6100e9565b6040516100759190610780565b60405180910390f35b610098600480360381019061009391906106f5565b61023d565b6040516100a69291906107bb565b60405180910390f35b6100b761031e565b6040516100c4919061085c565b60405180910390f35b6100e760048036038101906100e291906108ca565b610342565b005b5f5f7f000000000000000000000000000000000000000000000000000000000000000073ffffffffffffffffffffffffffffffffffffffff1663ed42136f876040518263ffffffff1660e01b815260040161014491906109b0565b60c060405180830381865afa15801561015f573d5f5f3e3d5ffd5b505050506040513d601f19601f820116820180604052508101906101839190610ba4565b90505f816080015167ffffffffffffffff16036101d757856040517f01bccb930000000000000000000000000000000000000000000000000000000081526004016101ce91906109b0565b60405180910390fd5b6101e6848487845f0151610505565b91508115610234573373ffffffffffffffffffffffffffffffffffffffff1685877fed39d8a31da51a7c5bff4fe4599bd80307a5534ac506bf8e0e1340d40a39b1f360405160405180910390a45b50949350505050565b5f5f5f7f000000000000000000000000000000000000000000000000000000000000000073ffffffffffffffffffffffffffffffffffffffff1663ed42136f886040518263ffffffff1660e01b815260040161029991906109b0565b60c060405180830381865afa1580156102b4573d5f5f3e3d5ffd5b505050506040513d601f19601f820116820180604052508101906102d89190610ba4565b90505f816080015167ffffffffffffffff16036102fb575f5f9250925050610315565b61030a858588845f0151610505565b925080608001519150505b94509492505050565b7f000000000000000000000000000000000000000000000000000000000000000081565b5f7f000000000000000000000000000000000000000000000000000000000000000073ffffffffffffffffffffffffffffffffffffffff1663ed42136f866040518263ffffffff1660e01b815260040161039c91906109b0565b60c060405180830381865afa1580156103b7573d5f5f3e3d5ffd5b505050506040513d601f19601f820116820180604052508101906103db9190610ba4565b90505f816080015167ffffffffffffffff160361042f57846040517f01bccb9300000000000000000000000000000000000000000000000000000000815260040161042691906109b0565b60405180910390fd5b61043e838386845f0151610505565b610474576040517f09bde33900000000000000000000000000000000000000000000000000000000815260040160405180910390fd5b3373ffffffffffffffffffffffffffffffffffffffff1684867fed39d8a31da51a7c5bff4fe4599bd80307a5534ac506bf8e0e1340d40a39b1f360405160405180910390a47f520b0e1dcd9b66b1854c89deb6565de548dece6dfdd872f8629385c9613c8df38989898989426040516104f296959493929190610c19565b60405180910390a1505050505050505050565b5f5f8390505f5f90505b8686905081101561054c5761053d8288888481811061053157610530610c6e565b5b9050602002013561055b565b9150808060010191505061050f565b50828114915050949350505050565b5f818311156105d85760028284604051602001610579929190610cbb565b6040516020818303038152906040526040516105959190610d38565b602060405180830381855afa1580156105b0573d5f5f3e3d5ffd5b5050506040513d601f19601f820116820180604052508101906105d39190610d4e565b610648565b600283836040516020016105ed929190610cbb565b6040516020818303038152906040526040516106099190610d38565b602060405180830381855afa158015610624573d5f5f3e3d5ffd5b5050506040513d601f19601f820116820180604052508101906106479190610d4e565b5b905092915050565b5f604051905090565b5f5ffd5b5f5ffd5b5f819050919050565b61067381610661565b811461067d575f5ffd5b50565b5f8135905061068e8161066a565b92915050565b5f5ffd5b5f5ffd5b5f5ffd5b5f5f83601f8401126106b5576106b4610694565b5b8235905067ffffffffffffffff8111156106d2576106d1610698565b5b6020830191508360208202830111156106ee576106ed61069c565b5b9250929050565b5f5f5f5f6060858703121561070d5761070c610659565b5b5f61071a87828801610680565b945050602061072b87828801610680565b935050604085013567ffffffffffffffff81111561074c5761074b61065d565b5b610758878288016106a0565b925092505092959194509250565b5f8115159050919050565b61077a81610766565b82525050565b5f6020820190506107935f830184610771565b92915050565b5f67ffffffffffffffff82169050919050565b6107b581610799565b82525050565b5f6040820190506107ce5f830185610771565b6107db60208301846107ac565b9392505050565b5f73ffffffffffffffffffffffffffffffffffffffff82169050919050565b5f819050919050565b5f61082461081f61081a846107e2565b610801565b6107e2565b9050919050565b5f6108358261080a565b9050919050565b5f6108468261082b565b9050919050565b6108568161083c565b82525050565b5f60208201905061086f5f83018461084d565b92915050565b5f5f83601f84011261088a57610889610694565b5b8235905067ffffffffffffffff8111156108a7576108a6610698565b5b6020830191508360018202830111156108c3576108c261069c565b5b9250929050565b5f5f5f5f5f5f5f5f60a0898b0312156108e6576108e5610659565b5b5f89013567ffffffffffffffff8111156109035761090261065d565b5b61090f8b828c01610875565b9850985050602089013567ffffffffffffffff8111156109325761093161065d565b5b61093e8b828c01610875565b965096505060406109518b828c01610680565b94505060606109628b828c01610680565b935050608089013567ffffffffffffffff8111156109835761098261065d565b5b61098f8b828c016106a0565b92509250509295985092959890939650565b6109aa81610661565b82525050565b5f6020820190506109c35f8301846109a1565b92915050565b5f5ffd5b5f601f19601f8301169050919050565b7f4e487b71000000000000000000000000000000000000000000000000000000005f52604160045260245ffd5b610a13826109cd565b810181811067ffffffffffffffff82111715610a3257610a316109dd565b5b80604052505050565b5f610a44610650565b9050610a508282610a0a565b919050565b5f81519050610a638161066a565b92915050565b610a7281610799565b8114610a7c575f5ffd5b50565b5f81519050610a8d81610a69565b92915050565b5f63ffffffff82169050919050565b610aab81610a93565b8114610ab5575f5ffd5b50565b5f81519050610ac681610aa2565b92915050565b5f610ad6826107e2565b9050919050565b610ae681610acc565b8114610af0575f5ffd5b50565b5f81519050610b0181610add565b92915050565b5f60c08284031215610b1c57610b1b6109c9565b5b610b2660c0610a3b565b90505f610b3584828501610a55565b5f830152506020610b4884828501610a7f565b6020830152506040610b5c84828501610a7f565b6040830152506060610b7084828501610ab8565b6060830152506080610b8484828501610a7f565b60808301525060a0610b9884828501610af3565b60a08301525092915050565b5f60c08284031215610bb957610bb8610659565b5b5f610bc684828501610b07565b91505092915050565b5f82825260208201905092915050565b828183375f83830152505050565b5f610bf88385610bcf565b9350610c05838584610bdf565b610c0e836109cd565b840190509392505050565b5f6080820190508181035f830152610c3281888a610bed565b90508181036020830152610c47818688610bed565b9050610c5660408301856109a1565b610c6360608301846107ac565b979650505050505050565b7f4e487b71000000000000000000000000000000000000000000000000000000005f52603260045260245ffd5b5f819050919050565b610cb5610cb082610661565b610c9b565b82525050565b5f610cc68285610ca4565b602082019150610cd68284610ca4565b6020820191508190509392505050565b5f81519050919050565b5f81905092915050565b8281835e5f83830152505050565b5f610d1282610ce6565b610d1c8185610cf0565b9350610d2c818560208601610cfa565b80840191505092915050565b5f610d438284610d08565b915081905092915050565b5f60208284031215610d6357610d62610659565b5b5f610d7084828501610a55565b9150509291505056fea26469706673582212201bd5fadb76e43972d8333c15d303005b4335344ea6b390ec138e78acdecbd93864736f6c63430008230033","linkReferences":{}},"methodIdentifiers":{"anchor()":"d3fb73b4","checkEventInclusion(bytes32,bytes32,bytes32[])":"b0e49d19","recordVerifiedArrival(string,string,bytes32,bytes32,bytes32[])":"fa5598b4","verifyEventInclusion(bytes32,bytes32,bytes32[])":"342efc2a"},"id":0}